:020000040000FA
:04000000FBEF31F0F1
:106286001200000E956E000E836E120057C001F0CC
:1062960058C002F01200016E630E0124D96EDA6A4C
:1062A600000EDA22DF5083121200016E630E012403
:1062B600D96EDA6A000EDA22DF50FF0A8316120060
:1062C600010204082010408001000000E0A5010042
:1062D60050460000504600000E6E000E0B6E000E7B
:1062E6000A6E0E504BEC33F0000E026E020E016E7B
:1062F600CAEC31F012000E6E000E0B6E010E0A6E25
:106306000E504BEC33F0000E026E500E016E43EC55
:1063160031F012000C6E0CC007F0086A7AEC32F00D
:10632600000E026E1D0E016E0AC003F00BC004F0D3
:1063360010EC3BF035EC32F01200000E026E080E47
:10634600016E000E046E010E036E10EC3BF0000EA3
:10635600026E080E016E000E046E000E036E10EC47
:106366003BF01200000E026E1F0E016E000E046E50
:10637600010E036E10EC3BF0000E026E1F0E016E56
:10638600000E046E000E036E10EC3BF01200000EC1
:10639600056E000E046ED2EF31F0044A052A015054
:1063A600045C0550800A036E0250800A0358D8A088
:1063B600DFEF31F0E1EF31F0D0EF31F0120016EC03
:1063C60032F0000E026E0A0E016E000E046E010E11
:1063D600036E37EC3CF0000E026E090E016E000EE5
:1063E600046E010E036E37EC3CF00C0EC16E12000B
:1063F600C60EF66E620EF76E000EF86E00EE63F0D5
:1064060010EE18F00900F5CFEEFFE550E150FAE185
:1064160000EE3FF0240EEE6AE806FDE1000EF86E8F
:106426000001EFEF39F0000E026E1F0E016E000E36
:10643600046E000E036E37EC3CF0000E026E080E82
:10644600016E000E046E000E036E37EC3CF0000E7B
:10645600026E1E0E016E000E046E000E036E37EC09
:106466003CF01200000E026E1C0E016E000E046E51
:10647600010E036E10EC3BF0000E026E050E016E6F
:1064860043EC31F0000E026E1C0E016E000E046E1F
:10649600000E036E10EC3BF0000E026E050E016E50
:1064A60043EC31F01200000E026E000E016E000E7B
:1064B600046E010E036E37EC3CF0000E026E010E08
:1064C600016E000E046E010E036E37EC3CF0000EFA
:1064D600026E020E016E000E046E010E036E37ECA4
:1064E6003CF0C2800C0EC16EAA0EC06E1200000EE9
:1064F600026E080E016E000E046E000E036E10ECA6
:106506003BF0000E096E000E026E1E0E016E800E2E
:106516000714036E046A10EC3BF0A0EC31F0D8903F
:1065260007360836092A070E09649CEF32F09EEFFB
:1065360032F086EF32F0B5EC31F01200C30EC2161F
:10654600025007E1030E015CD8B0ACEF32F0AEEFBB
:1065560032F0B2EF32F00144E846FC0BC212C282BE
:10656600C2B2B8EF32F0BAEF32F0B3EF32F0C4CFC6
:1065760003F0046A0350046E036AC3500326000E38
:10658600042203C001F004C002F01200000E146ED3
:10659600000E136EDFEF32F013500F24116E1450FD
:1065A6001020126E11C0F6FF12C0F7FF0800F5505A
:1065B6007EEC31F0134A142A13500F24116E145036
:1065C6001020126E11C0F6FF12C0F7FF0800F5503A
:1065D6000009D8A4F1EF32F0F3EF32F0CFEF32F04A
:1065E6001200000E026E180E016E000E046E000EF2
:1065F600036E37EC3CF0000E026E190E016E000EB3
:10660600046E000E036E37EC3CF0000E026E1A0E9E
:10661600016E000E046E000E036E37EC3CF0000EA9
:10662600026E1B0E016E000E046E000E036E37EC3A
:106636003CF016EC32F01200266E2550D8A426EF58
:1066460033F028EF33F02AEF33F026C05EF025044E
:10665600D8A430EF33F032EF33F034EF33F026C006
:106666005DF0020E2518D8A43BEF33F03DEF33F072
:106676003FEF33F026C05CF0030E2518D8A446EF92
:1066860033F048EF33F04AEF33F026C05BF01200E8
:106696000D6E0DC00CF00C3A0F0E0C160C50076E5A
:1066A600086A7AEC32F0000E026E1D0E016E0AC008
:1066B60003F00BC004F010EC3BF035EC32F00DC0EB
:1066C6000CF00F0E0C160C50076E086A7AEC32F0BE
:1066D600000E026E1D0E016E0AC003F00BC004F020
:1066E60010EC3BF035EC32F01200000E096E000E95
:1066F6000A6E000E0B6E000E0C6E01A085EF33F0D5
:1067060087EF33F08FEF33F00550092606500A2243
:1067160007500B2208500C22D8900536063607364D
:106726000836D89004320332023201320150021088
:1067360003100410D8A4A2EF33F0A4EF33F080EFD7
:1067460033F009C001F00AC002F00BC003F00CC020
:1067560004F01200270E126E100E116ED9EF33F0F0
:1067660011C003F012C004F00FC001F010C002F017
:1067760080EC35F001C009F002C00AF0000E0C6E84
:106786000A0E0B6E75EC34F00950300F7EEC31F0CA
:1067960011C001F012C002F0000E046E0A0E036E64
:1067A60080EC35F001C011F002C012F012BEE6EF27
:1067B60033F0125006E11104D8B0E4EF33F0E6EFFF
:1067C60033F0B3EF33F01200000E056E000E046EC8
:1067D60004C001F0010E026E000E036E012AF7EFEF
:1067E60033F0D89002360336012EF4EF33F05750CB
:1067F60002165850031602500310D8B405EF34F0B1
:1068060007EF34F011EF34F0D70E0424F66E7E0E47
:106816000520F76E0800F55022EF34F0044A052AE9
:1068260005BE1FEF34F0055009E10A0E045CD8A03E
:106836001FEF34F021EF34F0EBEF33F0000E1200CF
:1068460049EC31F05950011809E15A500218D8B4F0
:106856002FEF34F031EF34F074EF34F049EC31F0CF
:1068660001C059F002C05AF0E7EC33F0626E6BB02B
:106876003FEF34F041EF34F04BEF34F073C04FF09C
:1068860074C050F075C051F076C052F071EF34F01C
:10689600080E6B186C106D106E10D8A455EF34F0FE
:1068A60057EF34F069EF34F06FC04FF070C050F01E
:1068B60071C051F072C052F0000E6B6E000E6C6E1D
:1068C600000E6D6E000E6E6E71EF34F077C04FF0F5
:1068D60078C050F079C051F07AC052F062505EEC48
:1068E6003DF01200000E0E6E0ABE7EEF34F07CEF15
:1068F60034F084EF34F0096C0A1ED8B00A2A010E6F
:106906000E6E0CBE8BEF34F089EF34F08FEF34F05F
:106916000B6C0C1ED8B00C2A0B500C10D8B496EF8A
:1069260034F098EF34F0BCEF34F0010E0D6EA0EFAA
:1069360034F0D8900B360C360D2A0CAEA5EF34F099
:10694600A7EF34F09CEF34F00B50095C0C500A585A
:10695600D8A0B0EF34F0B2EF34F0B6EF34F00B500D
:10696600095E0C500A5AD8900C320B320D2EA7EF46
:1069760034F00E50D8B4C2EF34F0C4EF34F0C8EFA0
:1069860034F0096C0A1ED8B00A2A09C009F00AC0F8
:106996000AF01200000E026E000E016EA1EC32F03B
:1069A60001C043F002C044F0000E44BEFF0E456E27
:1069B600466E3F5043180FE1405044180CE14150D9
:1069C600451809E142504618D8B4ECEF34F0EEEF22
:1069D60034F025EF35F043C03FF044C040F045C0E9
:1069E60041F046C042F0800E6FEC31F0CD0E0F6ED6
:1069F6007F0E106EC9EC32F0C00E6FEC31F043C062
:106A06000FF044C010F0ADEC33F0E50E0F6E7F0EC4
:106A1600106EC9EC32F0000E166E000E156E155093
:106A260058EC31F0154A162A16BE23EF35F01650EB
:106A360009E1080E155CD8A023EF35F025EF35F0F7
:106A460012EF35F01200000E026E1C0E016E000EE3
:106A5600046E000E036E37EC3CF0000E026E1D0E47
:106A6600016E000E046E000E036E37EC3CF016EC61
:106A760032F0000E026E0F0E016ECAEC31F0000EFF
:106A86000B6E000E0A6E030E8DEC31F0000E026ED8
:106A9600050E016ECAEC31F0000E0B6E000E0A6E8A
:106AA600030E8DEC31F0000E026EA00E016E43EC6B
:106AB60031F0000E0B6E000E0A6E030E8DEC31F0F7
:106AC600000E026EA00E016E43EC31F0000E0B6E4E
:106AD600000E0A6E020E8DEC31F0000E026E0A0EEA
:106AE600016ECAEC31F0280E6FEC31F00C0E6FEC33
:106AF60031F0010E6FEC31F01200000E066E04BE8E
:106B060089EF35F087EF35F08FEF35F0036C041E13
:106B1600D8B0042A010E066E02BE96EF35F094EF49
:106B260035F09CEF35F0016C021ED8B0022A010E3A
:106B3600061A000E086E000E076E03500410D8B435
:106B4600A7EF35F0A9EF35F0D1EF35F0010E056E60
:106B5600B1EF35F0D89003360436052A04AEB6EF09
:106B660035F0B8EF35F0ADEF35F0D890073608368A
:106B76000350015C04500258D8A0C4EF35F0C6EFAC
:106B860035F0CBEF35F00350015E0450025A078012
:106B9600D89004320332052EB8EF35F00650D8B43B
:106BA600D7EF35F0D9EF35F0DDEF35F0076C081E7D
:106BB600D8B0082A07C001F008C002F01200000E83
:106BC600246E1EBEEBEF35F0E9EF35F0F5EF35F04C
:106BD6001E1E1D1E1C1E1B6C000E1C221D221E22AC
:106BE600010E246E22BEFCEF35F0FAEF35F004EF0D
:106BF60036F0221E211E201E1F6C000E202221228E
:106C060022221F50201021102210D8B40DEF36F08A
:106C16000FEF36F03FEF36F0010E236E19EF36F028
:106C2600D8901F36203621362236232A22AE1EEF72
:106C360036F020EF36F013EF36F01F501B5C205075
:106C46001C5821501D5822501E58D8A02DEF36F042
:106C56002FEF36F037EF36F01F501B5E20501C5AD0
:106C660021501D5A22501E5AD890223221322032EB
:106C76001F32232E20EF36F02450D8B445EF36F0DD
:106C860047EF36F04FEF36F01E1E1D1E1C1E1B6C06
:106C9600000E1C221D221E221BC01BF01CC01CF055
:106CA6001DC01DF01EC01EF01200000E166E14BE92
:106CB60061EF36F05FEF36F06BEF36F0141E131E01
:106CC600121E116C000E122213221422010E166ED1
:106CD60010BE72EF36F070EF36F07CEF36F0101E15
:106CE6000F1E0E1E0D6C000E0E220F221022010E1C
:106CF600161A000E176E000E186E000E196E000E94
:106D06001A6E1150121013101410D8B48DEF36F0FD
:106D16008FEF36F0C5EF36F0010E156E99EF36F0AF
:106D2600D8901136123613361436152A14AE9EEF45
:106D360036F0A0EF36F093EF36F0D89017361836C7
:106D460019361A3611500D5C12500E5813500F5842
:106D560014501058D8A0B2EF36F0B4EF36F0BDEFAD
:106D660036F011500D5E12500E5A13500F5A145031
:106D7600105A1780D8901432133212321132152E4F
:106D8600A0EF36F01650D8B4CBEF36F0CDEF36F094
:106D9600D5EF36F01A1E191E181E176C000E182293
:106DA60019221A2217C00DF018C00EF019C00FF0E4
:106DB6001AC010F01200000E566E000E556E000E30
:106DC6000E6E000E0D6E0EBEF2EF36F00E5009E19D
:106DD600050E0D5CD8A0F2EF36F0F4EF36F0F6EFC4
:106DE60036F057EF37F00DC00AF0030E0A26010EF3
:106DF6000B6E000E0C6E0A2A04EF37F0D8900B3695
:106E06000C360A2E01EF37F00BC007F00CC008F065
:106E16007AEC32F0000E026E0A0E016E79EC37F053
:106E260001500210D8B41AEF37F01CEF37F02FEFED
:106E360037F00DC00AF0010E0B6E000E0C6E0A2A1A
:106E460028EF37F0D8900B360C360A2E25EF37F0A0
:106E56000B5055120C505612000E026E090E016EA2
:106E660079EC37F001500210D8B43CEF37F03EEF22
:106E760037F053EF37F00DC00AF0050E0A26010E63
:106E86000B6E000E0C6E0A2A4CEF37F0D8900B36BC
:106E96000C360A2E49EF37F00B5055120C5056128D
:106EA6000D4A0E2AE6EF36F05550531807E15650B4
:106EB6005418D8A461EF37F063EF37F066EF37F078
:106EC60060066CEF37F0010E606E55C053F056C089
:106ED60054F06050D8A472EF37F074EF37F078EFC3
:106EE60037F053C057F054C058F0120002BE87EF77
:106EF60037F0025007E1080E015CD8B085EF37F095
:106F060087EF37F09BEF37F001C003F0010E046EF8
:106F1600032A90EF37F0D8900436032E8EEF37F021
:106F260004508014056E0550016E026A2DEF38F08C
:106F360002BEA9EF37F0025007E1100E015CD8B08F
:106F4600A7EF37F0A9EF37F0BFEF37F001C003F036
:106F5600F80E0326010E046E032AB4EF37F0D8901C
:106F66000436032EB2EF37F004508114056E055037
:106F7600016E026A2DEF38F002BECDEF37F00250F7
:106F860007E1180E015CD8B0CBEF37F0CDEF37F044
:106F9600E3EF37F001C003F0F00E0326010E046E96
:106FA600032AD8EF37F0D8900436032ED6EF37F001
:106FB60004508214056E0550016E026A2DEF38F0FA
:106FC60002BEF1EF37F0025007E1200E015CD8B0A7
:106FD600EFEF37F0F1EF37F007EF38F001C003F0CD
:106FE600E80E0326010E046E032AFCEF37F0D89054
:106FF6000436032EFAEF37F004508314056E05505D
:10700600016E026A2DEF38F002BE15EF38F002501D
:1070160007E1280E015CD8B013EF38F015EF38F011
:107026002BEF38F001C003F0E00E0326010E046ECC
:10703600032A20EF38F0D8900436032E1EEF38F0DE
:1070460004508414056E0550016E026A2DEF38F067
:10705600016802681200000E026E180E016E000E24
:10706600046E000E036E10EC3BF0000E026E190E5D
:10707600016E000E046E000E036E10EC3BF0000E67
:10708600026E1A0E016E000E046E000E036E10ECF8
:107096003BF0000E026E1B0E016E000E046E000E1B
:1070A600036E10EC3BF0000E086E000E076E7AECD5
:1070B60032F0C6EF38F0C70E5E24F66EF76A7E0E23
:1070C600F7220800F550076E086A7AEC32F0000ED7
:1070D600026E180E016E000E046E010E036E10ECA9
:1070E6003BF0010E5F6EE3EF38F0C70E5D24F66EDF
:1070F600F76A7E0EF7220800F550076E086A7AECEA
:1071060032F0000E026E190E016E000E046E010EB4
:10711600036E10EC3BF0020E5F6EE3EF38F0C70E25
:107126005C24F66EF76A7E0EF7220800F550076EAD
:10713600086A7AEC32F0000E026E1A0E016E000E2C
:10714600046E010E036E10EC3BF0030E5F6EE3EF70
:1071560038F0C70E5B24F66EF76A7E0EF72208003B
:10716600F550076E086A7AEC32F0000E026E1B0EBE
:10717600016E000E046E010E036E10EC3BF0000E65
:107186005F6EE3EF38F05F500A6E0B6A0B50000A31
:10719600D8B4D0EF38F0C2EF38F00A50000AD8B4AD
:1071A6005EEF38F0010AD8B478EF38F0030AD8B4A5
:1071B60092EF38F0010AD8B4ACEF38F0C2EF38F0ED
:1071C60012004350441045104610D8B4EDEF38F085
:1071D600EFEF38F0EEEF39F04BC001F04CC002F0A3
:1071E6004DC003F04EC004F0640E056E000E066E30
:1071F600000E076E000E086E78EC33F001C00DF03D
:1072060002C00EF003C00FF004C010F043C001F03E
:1072160044C002F045C003F046C004F0100E056EEF
:107226000E0E066E000E076E000E086E78EC33F03A
:1072360001C011F002C012F003C013F004C014F034
:1072460058EC36F00DC020F00EC021F0010E6FECA8
:1072560031F0F50E0F6E7F0E106EC9EC32F020C0C5
:107266000FF021C010F0ADEC33F021BE44EF39F041
:10727600215009E1580E205CD8A044EF39F046EFC2
:1072860039F04CEF39F0000E1F6E080E1E6ED1EF6E
:1072960039F021BE58EF39F0215009E14B0E205C40
:1072A600D8A058EF39F05AEF39F060EF39F0000EF8
:1072B6001F6E070E1E6ED1EF39F021BE6CEF39F04E
:1072C600215009E13E0E205CD8A06CEF39F06EEF3C
:1072D60039F074EF39F0000E1F6E060E1E6ED1EFF8
:1072E60039F021BE80EF39F0215009E1320E205CE1
:1072F600D8A080EF39F082EF39F091EF39F0C00E67
:107306006FEC31F0EE0E0F6E7F0E106EC9EC32F0A0
:10731600000E1F6E050E1E6ED1EF39F021BE9DEFD9
:1073260039F0215009E1250E205CD8A09DEF39F0F7
:107336009FEF39F0A5EF39F0000E1F6E040E1E6E9A
:10734600D1EF39F021BEB1EF39F0215009E1190E24
:10735600205CD8A0B1EF39F0B3EF39F0B9EF39F0CE
:10736600000E1F6E030E1E6ED1EF39F021BEC5EF63
:1073760039F0215009E10C0E205CD8A0C5EF39F098
:10738600C7EF39F0CDEF39F0000E1F6E020E1E6EFC
:10739600D1EF39F0000E1F6E010E1E6E000E1D6E2F
:1073A600000E1C6EDFEF39F0FC0E7EEC31F01C5047
:1073B6004EEC31F01C4A1D2A1E501C5C1D50800AE2
:1073C6001B6E1F50800A1B58D8A0ECEF39F0EEEF69
:1073D60039F0D7EF39F0120026EC35F0E2EC31F057
:1073E600F4EC32F044EC31F056EC32F015EF3AF0B2
:1073F60023EC34F0020E3E6E32EF3AF0DEEC36F05D
:10740600030E3E6E32EF3AF06104D8A40DEF3AF067
:107416000FEF3AF011EF3AF0CDEC34F0000E3E6E7D
:1074260032EF3AF03E50346E356A3550000AD8B421
:107436001FEF3AF011EF3AF03450000AD8B4FBEFE0
:1074460039F0010AD8B4FDEF39F0030AD8B401EFD8
:107456003AF0010AD8B407EF3AF011EF3AF0180EF5
:107466001F6E000E206E000E216E000E226E100E94
:10747600116E0E0E126E000E136E000E146E4FC0BD
:107486000DF050C00EF051C00FF052C010F058EC85
:1074960036F00DC01BF00EC01CF00FC01DF010C062
:1074A6001EF0E2EC35F01BC036F01CC037F01DC0F4
:1074B60038F01EC039F0000E256E36C00DF037C00C
:1074C6000EF038C00FF039C010F00A0E116E000E23
:1074D600126E000E136E000E146E58EC36F00D5040
:1074E6001FEC33F0180E1F6E000E206E000E216E7C
:1074F600000E226E100E116E0E0E126E000E136E20
:10750600000E146E4FC00DF050C00EF051C00FF0BB
:1075160052C010F058EC36F00DC01BF00EC01CF037
:107526000FC01DF010C01EF0E2EC35F01BC03AF0A3
:107536001CC03BF01DC03CF01EC03DF0010E256E88
:107546003AC01BF03BC01CF03CC01DF03DC01EF015
:107556000A0E1F6E000E206E000E216E000E226EA9
:10756600E2EC35F01B501FEC33F0020E256E580E80
:10757600116E020E126E000E136E000E146E4FC0C8
:107586000DF050C00EF051C00FF052C010F058EC84
:1075960036F00DC01BF00EC01CF00FC01DF010C061
:1075A6001EF0060E1F6E000E206E000E216E000EDF
:1075B600226EE2EC35F01B501FEC33F0030E256E05
:1075C6003C0E116E000E126E000E136E000E146E3F
:1075D6004FC00DF050C00EF051C00FF052C010F069
:1075E60058EC36F00DC01BF00EC01CF00FC01DF09D
:1075F60010C01EF00A0E1F6E000E206E000E216EC9
:10760600000E226EE2EC35F01B501FEC33F02EEC30
:1076160038F015EF3AF000EF00F002BE1EEF3BF037
:10762600025007E1080E015CD8B01CEF3BF01EEFDC
:107636003BF048EF3BF003500410D8B425EF3BF085
:1076460027EF3BF037EF3BF001C005F0010E066E69
:10765600052A30EF3BF0D8900636052E2EEF3BF08C
:107666000650801236EF3CF001C005F0010E066EA2
:10767600052A40EF3BF0D8900636052E3EEF3BF04C
:107686000650FF0A801636EF3CF002BE56EF3BF07E
:10769600025007E1100E015CD8B054EF3BF056EFF4
:1076A6003BF084EF3BF0F80E0126FF0E022203505A
:1076B6000410D8B461EF3BF063EF3BF073EF3BF09F
:1076C60001C005F0010E066E052A6CEF3BF0D8905E
:1076D6000636052E6AEF3BF00650811236EF3CF077
:1076E60001C005F0010E066E052A7CEF3BF0D8902E
:1076F6000636052E7AEF3BF00650FF0A811636EF66
:107706003CF002BE92EF3BF0025007E1180E015C1E
:10771600D8B090EF3BF092EF3BF0C0EF3BF0F00EAD
:107726000126FF0E022203500410D8B49DEF3BF051
:107736009FEF3BF0AFEF3BF001C005F0010E066E88
:10774600052AA8EF3BF0D8900636052EA6EF3BF0AB
:107756000650821236EF3CF001C005F0010E066EAF
:10776600052AB8EF3BF0D8900636052EB6EF3BF06B
:107776000650FF0A821636EF3CF002BECEEF3BF013
:10778600025007E1200E015CD8B0CCEF3BF0CEEF03
:107796003BF0FCEF3BF0E80E0126FF0E0222035001
:1077A6000410D8B4D9EF3BF0DBEF3BF0EBEF3BF046
:1077B60001C005F0010E066E052AE4EF3BF0D890F5
:1077C6000636052EE2EF3BF00650831236EF3CF00C
:1077D60001C005F0010E066E052AF4EF3BF0D890C5
:1077E6000636052EF2EF3BF00650FF0A831636EFFB
:1077F6003CF002BE0AEF3CF0025007E1280E015CA5
:10780600D8B008EF3CF00AEF3CF036EF3CF0E00E63
:107816000126FF0E022203500410D8B415EF3CF0E7
:1078260017EF3CF027EF3CF001C005F0010E066EA5
:10783600052A20EF3CF0D8900636052E1EEF3CF0C8
:107846000650841236EF3CF001C005F0010E066EBC
:10785600052A30EF3CF0D8900636052E2EEF3CF088
:107866000650FF0A8416120002BE45EF3CF0025095
:1078760007E1080E015CD8B043EF3CF045EF3CF061
:107886006FEF3CF003500410D8B44CEF3CF04EEFD1
:107896003CF05EEF3CF001C005F0010E066E052AD5
:1078A60057EF3CF0D8900636052E55EF3CF00650C3
:1078B60092125DEF3DF001C005F0010E066E052A3D
:1078C60067EF3CF0D8900636052E65EF3CF0065083
:1078D600FF0A92165DEF3DF002BE7DEF3CF00250CE
:1078E60007E1100E015CD8B07BEF3CF07DEF3CF079
:1078F600ABEF3CF003500410D8B484EF3CF086EFB5
:107906003CF098EF3CF001C005F0F80E0526010E9C
:10791600066E052A91EF3CF0D8900636052E8FEFBD
:107926003CF0065093125DEF3DF001C005F0F80EF5
:107936000526010E066E052AA3EF3CF0D890063602
:10794600052EA1EF3CF00650FF0A93165DEF3DF0C1
:1079560002BEB9EF3CF0025007E1180E015CD8B048
:10796600B7EF3CF0B9EF3CF0E7EF3CF00350041002
:10797600D8B4C0EF3CF0C2EF3CF0D4EF3CF001C00D
:1079860005F0F00E0526010E066E052ACDEF3CF039
:10799600D8900636052ECBEF3CF0065094125DEFDC
:1079A6003DF001C005F0F00E0526010E066E052A13
:1079B600DFEF3CF0D8900636052EDDEF3CF00650A2
:1079C600FF0A94165DEF3DF002BEF5EF3CF0025063
:1079D60007E1200E015CD8B0F3EF3CF0F5EF3CF088
:1079E60023EF3DF003500410D8B4FCEF3CF0FEEF5B
:1079F6003CF010EF3DF001C005F0E80E0526010E43
:107A0600066E052A09EF3DF0D8900636052E07EFDB
:107A16003DF0065095125DEF3DF001C005F0E80E11
:107A26000526010E066E052A1BEF3DF0D890063698
:107A3600052E19EF3DF00650FF0A95165DEF3DF055
:107A460002BE31EF3DF0025007E1280E015CD8B0CE
:107A56002FEF3DF031EF3DF05DEF3DF003500410A8
:107A6600D8B438EF3DF03AEF3DF04CEF3DF001C0B1
:107A760005F0E00E0526010E066E052A45EF3DF0DF
:107A8600D8900636052E43EF3DF0065096125DEF70
:107A96003DF001C005F0E00E0526010E066E052A32
:107AA60057EF3DF0D8900636052E55EF3DF00650BF
:107AB600FF0A96161200316E41EF3FF06BB066EF8B
:107AC6003DF068EF3DF078EF3DF03C0E7326000E7A
:107AD60074227522762273C04FF074C050F075C0C0
:107AE60051F076C052F062EF3FF0080E6B186C1042
:107AF6006D106E10D8A482EF3DF084EF3DF094EF48
:107B06003DF03C0E6F26000E7022712272226FC06D
:107B16004FF070C050F071C051F072C052F062EF79
:107B26003FF03C0E7726000E782279227A2277C023
:107B36004FF078C050F079C051F07AC052F062EF41
:107B46003FF06BB0A9EF3DF0ABEF3DF0B5EF3DF088
:107B5600C40E7326FF0E7422FF0E7522FF0E7622C8
:107B66006EEF3DF0080E6B186C106D106E10D8A4F9
:107B7600BFEF3DF0C1EF3DF0CBEF3DF0C40E6F26F9
:107B8600FF0E7022FF0E7122FF0E72228AEF3DF069
:107B9600C40E7726FF0E7822FF0E7922FF0E7A2278
:107BA6009AEF3DF06BB0DAEF3DF0DCEF3DF0E7EF3A
:107BB6003DF0010E6FEC31F0E10E0F6E7E0E106E91
:107BC600C9EC32F019EF3FF043504410451046100F
:107BD600D8B4F0EF3DF0F2EF3DF019EF3FF0010EB3
:107BE6006FEC31F0CD0E0F6E7F0E106EC9EC32F0D9
:107BF600C00E6FEC31F043C00FF044C010F0ADEC96
:107C060033F0E50E0F6E7F0E106EC9EC32F0000EEB
:107C1600616E19EF3FF0180E1F6E000E206E000EFB
:107C2600216E000E226E100E116E0E0E126E000EDA
:107C3600136E000E146E4FC00DF050C00EF051C002
:107C46000FF052C010F058EC36F00DC01BF00EC00D
:107C56001CF00FC01DF010C01EF0E2EC35F01BC08A
:107C660029F01CC02AF01DC02BF01EC02CF0000EFF
:107C7600256E29C00DF02AC00EF02BC00FF02CC0C7
:107C860010F00A0E116E000E126E000E136E000E2C
:107C9600146E58EC36F00D501FEC33F0180E1F6EB4
:107CA600000E206E000E216E000E226E100E116E5A
:107CB6000E0E126E000E136E000E146E4FC00DF0F7
:107CC60050C00EF051C00FF052C010F058EC36F014
:107CD6000DC01BF00EC01CF00FC01DF010C01EF032
:107CE600E2EC35F01BC02DF01CC02EF01DC02FF0AD
:107CF6001EC030F0010E256E2DC01BF02EC01CF0EC
:107D06002FC01DF030C01EF00A0E1F6E000E206E32
:107D1600000E216E000E226EE2EC35F01B501FECB9
:107D260033F0020E256E580E116E020E126E000E04
:107D3600136E000E146E4FC00DF050C00EF051C001
:107D46000FF052C010F058EC36F00DC01BF00EC00C
:107D56001CF00FC01DF010C01EF0060E1F6E000EA8
:107D6600206E000E216E000E226EE2EC35F01B50E6
:107D76001FEC33F0030E256E3C0E116E000E126ED4
:107D8600000E136E000E146E4FC00DF050C00EF0B4
:107D960051C00FF052C010F058EC36F00DC01BF079
:107DA6000EC01CF00FC01DF010C01EF00A0E1F6E94
:107DB600000E206E000E216E000E226EE2EC35F0F3
:107DC6001B501FEC33F06BA0EBEF3EF0EDEF3EF0F7
:107DD600F5EF3EF0010E4B26000E4C224D224E22B0
:107DE600FBEF3EF0010E4726000E482249224A22AA
:107DF6002EEC38F0000E336E000E326E324A332A05
:107E060033BE0FEF3FF0F40E325C010E3358D8A0AC
:107E16000FEF3FF011EF3FF001EF3FF0FF0E4F265F
:107E2600FF0E5022FF0E5122FF0E522252BE28EFA5
:107E36003FF052505110501006E14F04D8B026EFD3
:107E46003FF028EF3FF00EEF3EF0010E6B26000EDE
:107E56006C226D226E22E4EC38F062EF3FF0010EE8
:107E66006FEC31F0010E616E62EF3FF0010E6B2692
:107E7600000E6C226D226E2262EF3FF03150276EAB
:107E8600286A2850000AD8B44BEF3FF062EF3FF063
:107E96002750440AD8B4A4EF3DF0080AD8B432EF0C
:107EA6003FF01F0AD8B4D5EF3DF0060AD8B461EF0B
:107EB6003DF0260AD8B439EF3FF062EF3FF01200EA
:107EC600003F065B4F666D7D077F6F777C395E7975
:107ED60071554C4452535841425973486F72612050
:107EE600646F2064657363616E736F210070726FD7
:107EF60078696D6F20696E74657276616C6F00616A
:107F0600756D656E746172206F2074656D706F009B
:107F160064696D696E756972206F2074656D706F26
:107F260000506F6D6F646F726F2054696D657221BA
:107F36000041706572746520274427207061726164
:107F4600004469676974652027472720706172615C
:107F56000041706572746520275327207061726135
:107F66000041706572746520275527207061726123
:107F760000417065727465202773272070617261F5
:107F860000636F6D65636172206F2074696D657241
:107F9600007365746172206D6574612064650065A7
:107FA600737475646F20656D206D696E0070756CF5
:107FB60061722070617261206F0042656D2D766975
:107FC6006E646F20616F00417475616C206D65741D
:107FD600613A00496E73747275636F65733A002077
:107FE6006D696E75746F7300617175693A200074FE
:097FF6006573743A20004100009B
:020000040020DA
:08000000FFFFFFFFFFFFFFFF00
:020000040030CA
:0E000000FF071F1FFF8385FF0FC00FE00F409B
:00000001FF
