:020000040000FA
:04000000ECEF31F000
:106268001200000E956E000E836E120057C001F0EA
:1062780058C002F01200016E630E0124D96EDA6A6A
:10628800000EDA22DF5083121200016E630E012421
:10629800D96EDA6A000EDA22DF50FF0A831612007E
:1062A800010204082010408001000000E0A5010060
:1062B80050460000F0D200000E6E000E0B6E000E6D
:1062C8000A6E0E503CEC33F0000E026E020E016EA8
:1062D800BBEC31F012000E6E000E0B6E010E0A6E52
:1062E8000E503CEC33F0000E026E500E016E34EC92
:1062F80031F012000C6E0CC007F0086A6BEC32F03B
:10630800000E026E1D0E016E0AC003F00BC004F0F1
:10631800E6EC3AF026EC32F01200000E026E080E9F
:10632800016E000E046E010E036EE6EC3AF0000EEC
:10633800026E080E016E000E046E000E036EE6EC8F
:106348003AF01200000E026E1F0E016E000E046E6F
:10635800010E036EE6EC3AF0000E026E1F0E016E9F
:10636800000E046E000E036EE6EC3AF01200000E0A
:10637800056E000E046EC3EF31F0044A052A015081
:10638800045C0550800A036E0250800A0358D8A0A6
:10639800D0EF31F0D2EF31F0C1EF31F0120007EC5D
:1063A80032F0000E026E0A0E016E000E046E010E2F
:1063B800036E0DEC3CF0000E026E090E016E000E2D
:1063C800046E010E036E0DEC3CF00C0EC16E120053
:1063D800A80EF66E620EF76E000EF86E00EE63F011
:1063E80010EE18F00900F5CFEEFFE550E150FAE1A4
:1063F80000EE3FF0240EEE6AE806FDE1000EF86EAE
:106408000001C5EF39F0000E026E1F0E016E000E7E
:10641800046E000E036E0DEC3CF0000E026E080ECA
:10642800016E000E046E000E036E0DEC3CF0000EC3
:10643800026E1E0E016E000E046E000E036E0DEC51
:106448003CF01200000E026E1C0E016E000E046E6F
:10645800010E036EE6EC3AF0000E026E050E016EB8
:1064680034EC31F0000E026E1C0E016E000E046E4C
:10647800000E036EE6EC3AF0000E026E050E016E99
:1064880034EC31F01200000E026E000E016E000EA8
:10649800046E010E036E0DEC3CF0000E026E010E50
:1064A800016E000E046E010E036E0DEC3CF0000E42
:1064B800026E020E016E000E046E010E036E0DECEC
:1064C8003CF0C2800C0EC16EAA0EC06E1200000E07
:1064D800026E080E016E000E046E000E036EE6ECEE
:1064E8003AF0000E096E000E026E1E0E016E800E4E
:1064F8000714036E046AE6EC3AF091EC31F0D89098
:1065080007360836092A070E09648DEF32F08FEF37
:1065180032F077EF32F0A6EC31F01200C30EC2165B
:10652800025007E1030E015CD8B09DEF32F09FEFF7
:1065380032F0A3EF32F00144E846FC0BC212C282EB
:10654800C2B2A9EF32F0ABEF32F0A4EF32F0C4CF11
:1065580003F0046A0350046E036AC3500326000E56
:10656800042203C001F004C002F01200000E146EF1
:10657800000E136ED0EF32F013500F24116E14502A
:106588001020126E11C0F6FF12C0F7FF0800F55078
:106598006FEC31F0134A142A13500F24116E145063
:1065A8001020126E11C0F6FF12C0F7FF0800F55058
:1065B8000009D8A4E2EF32F0E4EF32F0C0EF32F095
:1065C8001200000E026E180E016E000E046E000E10
:1065D800036E0DEC3CF0000E026E190E016E000EFB
:1065E800046E000E036E0DEC3CF0000E026E1A0EE7
:1065F800016E000E046E000E036E0DEC3CF0000EF2
:10660800026E1B0E016E000E046E000E036E0DEC82
:106618003CF007EC32F01200266E2550D8A417EF94
:1066280033F019EF33F01BEF33F026C05EF025048A
:10663800D8A421EF33F023EF33F025EF33F026C051
:106648005DF0020E2518D8A42CEF33F02EEF33F0AE
:1066580030EF33F026C05CF0030E2518D8A437EFCE
:1066680033F039EF33F03BEF33F026C05BF0120024
:106678000D6E0DC00CF00C3A0F0E0C160C50076E78
:10668800086A6BEC32F0000E026E1D0E016E0AC035
:1066980003F00BC004F0E6EC3AF026EC32F00DC043
:1066A8000CF00F0E0C160C50076E086A6BEC32F0EB
:1066B800000E026E1D0E016E0AC003F00BC004F03E
:1066C800E6EC3AF026EC32F01200000E096E000EED
:1066D8000A6E000E0B6E000E0C6E01A076EF33F002
:1066E80078EF33F080EF33F00550092606500A2280
:1066F80007500B2208500C22D8900536063607366C
:106708000836D890043203320232013201500210A6
:1067180003100410D8A493EF33F095EF33F071EF22
:1067280033F009C001F00AC002F00BC003F00CC03E
:1067380004F01200270E1E6E100E1D6ECAEF33F005
:106748001DC003F01EC004F01BC001F01CC002F005
:1067580071EC35F001C009F002C00AF0000E0C6EB1
:106768000A0E0B6E66EC34F00950300F6FEC31F006
:106778001DC001F01EC002F0000E046E0A0E036E6A
:1067880071EC35F001C01DF002C01EF01EBED7EF3F
:1067980033F01E5006E11D04D8B0D5EF33F0D7EF23
:1067A80033F0A4EF33F01200000E056E000E046EF5
:1067B80004C001F0010E026E000E036E012AE8EF1C
:1067C80033F0D89002360336012EE5EF33F05750F8
:1067D80002165850031602500310D8B4F6EF33F0DF
:1067E800F8EF33F002EF34F0D70E0424F66E7E0E85
:1067F8000520F76E0800F55013EF34F0044A052A17
:1068080005BE10EF34F0055009E10A0E045CD8A06B
:1068180010EF34F012EF34F0DCEF33F0000E12001A
:106828003AEC31F05950011809E15A500218D8B41D
:1068380020EF34F022EF34F065EF34F03AEC31F029
:1068480001C059F002C05AF0D8EC33F0626E6BB058
:1068580030EF34F032EF34F03CEF34F073C04FF0E7
:1068680074C050F075C051F076C052F062EF34F049
:10687800080E6B186C106D106E10D8A446EF34F02B
:1068880048EF34F05AEF34F06FC04FF070C050F05A
:1068980071C051F072C052F0000E6B6E000E6C6E3B
:1068A800000E6D6E000E6E6E62EF34F077C04FF022
:1068B80078C050F079C051F07AC052F0625034EC90
:1068C8003DF01200000E0E6E0ABE6FEF34F06DEF51
:1068D80034F075EF34F0096C0A1ED8B00A2A010E9C
:1068E8000E6E0CBE7CEF34F07AEF34F080EF34F0AB
:1068F8000B6C0C1ED8B00C2A0B500C10D8B487EFB8
:1069080034F089EF34F0ADEF34F0010E0D6E91EFF5
:1069180034F0D8900B360C360D2A0CAE96EF34F0C6
:1069280098EF34F08DEF34F00B50095C0C500A5896
:10693800D8A0A1EF34F0A3EF34F0A7EF34F00B5058
:10694800095E0C500A5AD8900C320B320D2E98EF73
:1069580034F00E50D8B4B3EF34F0B5EF34F0B9EFEB
:1069680034F0096C0A1ED8B00A2A09C009F00AC016
:106978000AF01200000E026E000E016E92EC32F068
:1069880001C043F002C044F0000E44BEFF0E456E45
:10699800466E3F5043180FE1405044180CE14150F7
:1069A800451809E142504618D8B4DDEF34F0DFEF5E
:1069B80034F016EF35F043C03FF044C040F045C016
:1069C80041F046C042F0800E60EC31F0DE0E0F6EF2
:1069D8007F0E106EBAEC32F0C00E60EC31F043C09E
:1069E8001BF044C01CF09EEC33F0F60E0F6E7F0EC9
:1069F800106EBAEC32F0000E206E000E1F6E1F50A3
:106A080049EC31F01F4A202A20BE14EF35F02050FF
:106A180009E1080E1F5CD8A014EF35F016EF35F029
:106A280003EF35F01200000E026E1C0E016E000E10
:106A3800046E000E036E0DEC3CF0000E026E1D0E8F
:106A4800016E000E046E000E036E0DEC3CF007ECB8
:106A580032F0000E026E0F0E016EBBEC31F0000E2C
:106A68000B6E000E0A6E030E7EEC31F0000E026E05
:106A7800050E016EBBEC31F0000E0B6E000E0A6EB7
:106A8800030E7EEC31F0000E026EA00E016E34ECA7
:106A980031F0000E0B6E000E0A6E030E7EEC31F024
:106AA800000E026EA00E016E34EC31F0000E0B6E7B
:106AB800000E0A6E020E7EEC31F0000E026E0A0E17
:106AC800016EBBEC31F0280E60EC31F00C0E60EC7E
:106AD80031F0010E60EC31F01200000E066E04BEBB
:106AE8007AEF35F078EF35F080EF35F0036C041E5F
:106AF800D8B0042A010E066E02BE87EF35F085EF86
:106B080035F08DEF35F0016C021ED8B0022A010E67
:106B1800061A000E086E000E076E03500410D8B453
:106B280098EF35F09AEF35F0C2EF35F0010E056EAB
:106B3800A2EF35F0D89003360436052A04AEA7EF45
:106B480035F0A9EF35F09EEF35F0D89007360836C6
:106B58000350015C04500258D8A0B5EF35F0B7EFE8
:106B680035F0BCEF35F00350015E0450025A07803F
:106B7800D89004320332052EA9EF35F00650D8B468
:106B8800C8EF35F0CAEF35F0CEEF35F0076C081EC8
:106B9800D8B0082A07C001F008C002F01200000EA1
:106BA800246E1EBEDCEF35F0DAEF35F0E6EF35F097
:106BB8001E1E1D1E1C1E1B6C000E1C221D221E22CA
:106BC800010E246E22BEEDEF35F0EBEF35F0F5EF58
:106BD80035F0221E211E201E1F6C000E20222122AD
:106BE80022221F50201021102210D8B4FEEF35F0B9
:106BF80000EF36F030EF36F0010E236E0AEF36F074
:106C0800D8901F36203621362236232A22AE0FEF9F
:106C180036F011EF36F004EF36F01F501B5C2050B1
:106C28001C5821501D5822501E58D8A01EEF36F06F
:106C380020EF36F028EF36F01F501B5E20501C5A0C
:106C480021501D5A22501E5AD89022322132203209
:106C58001F32232E11EF36F02450D8B436EF36F019
:106C680038EF36F040EF36F01E1E1D1E1C1E1B6C42
:106C7800000E1C221D221E221BC01BF01CC01CF073
:106C88001DC01DF01EC01EF01200000E166E14BEB0
:106C980052EF36F050EF36F05CEF36F0141E131E4C
:106CA800121E116C000E122213221422010E166EEF
:106CB80010BE63EF36F061EF36F06DEF36F0101E60
:106CC8000F1E0E1E0D6C000E0E220F221022010E3A
:106CD800161A000E176E000E186E000E196E000EB2
:106CE8001A6E1150121013101410D8B47EEF36F02B
:106CF80080EF36F0B6EF36F0010E156E8AEF36F0FB
:106D0800D8901136123613361436152A14AE8FEF72
:106D180036F091EF36F084EF36F0D8901736183603
:106D280019361A3611500D5C12500E5813500F5860
:106D380014501058D8A0A3EF36F0A5EF36F0AEEFF8
:106D480036F011500D5E12500E5A13500F5A14504F
:106D5800105A1780D8901432133212321132152E6D
:106D680091EF36F01650D8B4BCEF36F0BEEF36F0DF
:106D7800C6EF36F01A1E191E181E176C000E1822C0
:106D880019221A2217C00DF018C00EF019C00FF002
:106D98001AC010F01200000E566E000E556E000E4E
:106DA8000E6E000E0D6E0EBEE3EF36F00E5009E1CA
:106DB800050E0D5CD8A0E3EF36F0E5EF36F0E7EF0F
:106DC80036F048EF37F00DC00AF0030E0A26010E20
:106DD8000B6E000E0C6E0A2AF5EF36F0D8900B36C3
:106DE8000C360A2EF2EF36F00BC007F00CC008F094
:106DF8006BEC32F0000E026E0A0E016E6AEC37F090
:106E080001500210D8B40BEF37F00DEF37F020EF38
:106E180037F00DC00AF0010E0B6E000E0C6E0A2A38
:106E280019EF37F0D8900B360C360A2E16EF37F0DC
:106E38000B5055120C505612000E026E090E016EC0
:106E48006AEC37F001500210D8B42DEF37F02FEF6D
:106E580037F044EF37F00DC00AF0050E0A26010E90
:106E68000B6E000E0C6E0A2A3DEF37F0D8900B36E9
:106E78000C360A2E3AEF37F00B5055120C505612BA
:106E88000D4A0E2AD7EF36F05550531807E15650E1
:106E98005418D8A452EF37F054EF37F057EF37F0C3
:106EA80060065DEF37F0010E606E55C053F056C0B6
:106EB80054F06050D8A463EF37F065EF37F069EF0E
:106EC80037F053C057F054C058F0120002BE78EFA4
:106ED80037F0025007E1080E015CD8B076EF37F0C2
:106EE80078EF37F08CEF37F001C003F0010E046E35
:106EF800032A81EF37F0D8900436032E7FEF37F05E
:106F080004508014056E0550016E026A1EEF38F0B9
:106F180002BE9AEF37F0025007E1100E015CD8B0BC
:106F280098EF37F09AEF37F0B0EF37F001C003F081
:106F3800F80E0326010E046E032AA5EF37F0D89049
:106F48000436032EA3EF37F004508114056E055064
:106F5800016E026A1EEF38F002BEBEEF37F0025033
:106F680007E1180E015CD8B0BCEF37F0BEEF37F080
:106F7800D4EF37F001C003F0F00E0326010E046EC3
:106F8800032AC9EF37F0D8900436032EC7EF37F03D
:106F980004508214056E0550016E026A1EEF38F027
:106FA80002BEE2EF37F0025007E1200E015CD8B0D4
:106FB800E0EF37F0E2EF37F0F8EF37F001C003F019
:106FC800E80E0326010E046E032AEDEF37F0D89081
:106FD8000436032EEBEF37F004508314056E05508A
:106FE800016E026A1EEF38F002BE06EF38F002505A
:106FF80007E1280E015CD8B004EF38F006EF38F04E
:107008001CEF38F001C003F0E00E0326010E046EF9
:10701800032A11EF38F0D8900436032E0FEF38F01A
:1070280004508414056E0550016E026A1EEF38F094
:10703800016802681200000E026E180E016E000E42
:10704800046E000E036EE6EC3AF0000E026E190EA6
:10705800016E000E046E000E036EE6EC3AF0000EB0
:10706800026E1A0E016E000E046E000E036EE6EC40
:107078003AF0000E026E1B0E016E000E046E000E3A
:10708800036EE6EC3AF0000E086E000E076E6BEC2D
:1070980032F0B7EF38F0C70E5E24F66EF76A7E0E50
:1070A800F7220800F550076E086A6BEC32F0000E04
:1070B800026E180E016E000E046E010E036EE6ECF1
:1070C8003AF0010E5F6ED4EF38F0C70E5D24F66E0D
:1070D800F76A7E0EF7220800F550076E086A6BEC17
:1070E80032F0000E026E190E016E000E046E010ED3
:1070F800036EE6EC3AF0020E5F6ED4EF38F0C70E7E
:107108005C24F66EF76A7E0EF7220800F550076ECB
:10711800086A6BEC32F0000E026E1A0E016E000E59
:10712800046E010E036EE6EC3AF0030E5F6ED4EFC8
:1071380038F0C70E5B24F66EF76A7E0EF722080059
:10714800F550076E086A6BEC32F0000E026E1B0EEB
:10715800016E000E046E010E036EE6EC3AF0000EAE
:107168005F6ED4EF38F05F500A6E0B6A0B50000A5E
:10717800D8B4C1EF38F0B3EF38F00A50000AD8B4E9
:107188004FEF38F0010AD8B469EF38F0030AD8B4E1
:1071980083EF38F0010AD8B49DEF38F0B3EF38F038
:1071A80012004350441045104610D8B4DEEF38F0B2
:1071B800E0EF38F0C4EF39F04BC001F04CC002F0FA
:1071C8004DC003F04EC004F0640E056E000E066E4E
:1071D800000E076E000E086E69EC33F001C00DF06A
:1071E80002C00EF003C00FF004C010F043C001F05D
:1071F80044C002F045C003F046C004F0100E056E0E
:107208000E0E066E000E076E000E086E69EC33F067
:1072180001C011F002C012F003C013F004C014F052
:1072280049EC36F00DC020F00EC021F021BE26EF4B
:1072380039F0215009E1580E205CD8A026EF39F02A
:1072480028EF39F02EEF39F0000E1F6E080E1E6E73
:10725800AAEF39F021BE3AEF39F0215009E14B0E7F
:10726800205CD8A03AEF39F03CEF39F042EF39F022
:10727800000E1F6E070E1E6EAAEF39F021BE4EEFEC
:1072880039F0215009E13E0E205CD8A04EEF39F0CC
:1072980050EF39F056EF39F0000E1F6E060E1E6ED5
:1072A800AAEF39F021BE62EF39F0215009E1320E20
:1072B800205CD8A062EF39F064EF39F06AEF39F05A
:1072C800000E1F6E050E1E6EAAEF39F021BE76EF76
:1072D80039F0215009E1250E205CD8A076EF39F06D
:1072E80078EF39F07EEF39F0000E1F6E040E1E6E37
:1072F800AAEF39F021BE8AEF39F0215009E1190EC1
:10730800205CD8A08AEF39F08CEF39F092EF39F091
:10731800000E1F6E030E1E6EAAEF39F021BE9EEFFF
:1073280039F0215009E10C0E205CD8A09EEF39F00D
:10733800A0EF39F0A6EF39F0000E1F6E020E1E6E98
:10734800AAEF39F0000E1F6E010E1E6E000E1D6EA4
:10735800000E1C6EB5EF39F01C503FEC31F01C4AA2
:107368001D2A1E501C5C1D50800A1B6E1F50800A6F
:107378001B58D8A0C2EF39F0C4EF39F0B0EF39F09C
:10738800120017EC35F0D3EC31F0E5EC32F035ECC7
:1073980031F047EC32F0EBEF39F014EC34F0020E38
:1073A8003E6E08EF3AF0CFEC36F0030E3E6E08EF73
:1073B8003AF06104D8A4E3EF39F0E5EF39F0E7EFEC
:1073C80039F0BEEC34F0000E3E6E08EF3AF03E5055
:1073D800346E356A3550000AD8B4F5EF39F0E7EF66
:1073E80039F03450000AD8B4D1EF39F0010AD8B4D2
:1073F800D3EF39F0030AD8B4D7EF39F0010AD8B47B
:10740800DDEF39F0E7EF39F0180E1F6E000E206E31
:10741800000E216E000E226E100E116E0E0E126EF0
:10742800000E136E000E146E4FC00DF050C00EF01B
:1074380051C00FF052C010F049EC36F00DC01BF0EF
:107448000EC01CF00FC01DF010C01EF0D3EC35F0BC
:107458001BC036F01CC037F01DC038F01EC039F014
:10746800000E256E36C00DF037C00EF038C00FF094
:1074780039C010F00A0E116E000E126E000E136E57
:10748800000E146E49EC36F00D5010EC33F0180E67
:107498001F6E000E206E000E216E000E226E100E62
:1074A800116E0E0E126E000E136E000E146E4FC08B
:1074B8000DF050C00EF051C00FF052C010F049EC62
:1074C80036F00DC01BF00EC01CF00FC01DF010C030
:1074D8001EF0D3EC35F01BC03AF01CC03BF01DC0C9
:1074E8003CF01EC03DF0010E256E3AC01BF03BC0BB
:1074F8001CF03CC01DF03DC01EF00A0E1F6E000EB1
:10750800206E000E216E000E226ED3EC35F01B505B
:1075180010EC33F0020E256E580E116E020E126E2C
:10752800000E136E000E146E4FC00DF050C00EF01A
:1075380051C00FF052C010F049EC36F00DC01BF0EE
:107548000EC01CF00FC01DF010C01EF0060E1F6EFE
:10755800000E206E000E216E000E226ED3EC35F068
:107568001B5010EC33F0030E256E3C0E116E000E0E
:10757800126E000E136E000E146E4FC00DF050C048
:107588000EF051C00FF052C010F049EC36F00DC0AB
:107598001BF00EC01CF00FC01DF010C01EF00A0E2C
:1075A8001F6E000E206E000E216E000E226ED3ECB0
:1075B80035F01B5010EC33F01FEC38F0EBEF39F0DE
:1075C80000EF00F002BEF4EF3AF0025007E1080EB7
:1075D800015CD8B0F2EF3AF0F4EF3AF01EEF3BF06E
:1075E80003500410D8B4FBEF3AF0FDEF3AF00DEF7A
:1075F8003BF001C005F0010E066E052A06EF3BF0D0
:10760800D8900636052E04EF3BF0065080120CEF9A
:107618003CF001C005F0010E066E052A16EF3BF09E
:10762800D8900636052E14EF3BF00650FF0A801658
:107638000CEF3CF002BE2CEF3BF0025007E1100EBD
:10764800015CD8B02AEF3BF02CEF3BF05AEF3BF04F
:10765800F80E0126FF0E022203500410D8B437EFAB
:107668003BF039EF3BF049EF3BF001C005F0010E6C
:10767800066E052A42EF3BF0D8900636052E40EFFD
:107688003BF0065081120CEF3CF001C005F0010EF2
:10769800066E052A52EF3BF0D8900636052E50EFBD
:1076A8003BF00650FF0A81160CEF3CF002BE68EF73
:1076B8003BF0025007E1180E015CD8B066EF3BF0D2
:1076C80068EF3BF096EF3BF0F00E0126FF0E02222A
:1076D80003500410D8B473EF3BF075EF3BF085EF1F
:1076E8003BF001C005F0010E066E052A7EEF3BF067
:1076F800D8900636052E7CEF3BF0065082120CEF30
:107708003CF001C005F0010E066E052A8EEF3BF035
:10771800D8900636052E8CEF3BF00650FF0A8216ED
:107728000CEF3CF002BEA4EF3BF0025007E1200E44
:10773800015CD8B0A2EF3BF0A4EF3BF0D2EF3BF0F6
:10774800E80E0126FF0E022203500410D8B4AFEF52
:107758003BF0B1EF3BF0C1EF3BF001C005F0010E8B
:10776800066E052ABAEF3BF0D8900636052EB8EF1C
:107778003BF0065083120CEF3CF001C005F0010EFF
:10778800066E052ACAEF3BF0D8900636052EC8EFDC
:107798003BF00650FF0A83160CEF3CF002BEE0EF08
:1077A8003BF0025007E1280E015CD8B0DEEF3BF059
:1077B800E0EF3BF00CEF3CF0E00E0126FF0E02225A
:1077C80003500410D8B4EBEF3BF0EDEF3BF0FDEFC6
:1077D8003BF001C005F0010E066E052AF6EF3BF0FE
:1077E800D8900636052EF4EF3BF0065084120CEFC5
:1077F8003CF001C005F0010E066E052A06EF3CF0CC
:10780800D8900636052E04EF3CF00650FF0A841681
:10781800120002BE1BEF3CF0025007E1080E015CAB
:10782800D8B019EF3CF01BEF3CF045EF3CF00350AB
:107838000410D8B422EF3CF024EF3CF034EF3CF0D5
:1078480001C005F0010E066E052A2DEF3CF0D89018
:107858000636052E2BEF3CF00650921233EF3DF022
:1078680001C005F0010E066E052A3DEF3CF0D890E8
:107878000636052E3BEF3CF00650FF0A921633EF12
:107888003DF002BE53EF3CF0025007E1100E015CE0
:10789800D8B051EF3CF053EF3CF081EF3CF003508F
:1078A8000410D8B45AEF3CF05CEF3CF06EEF3CF0BB
:1078B80001C005F0F80E0526010E066E052A67EFD1
:1078C8003CF0D8900636052E65EF3CF00650931232
:1078D80033EF3DF001C005F0F80E0526010E066EE7
:1078E800052A79EF3CF0D8900636052E77EF3CF064
:1078F8000650FF0A931633EF3DF002BE8FEF3CF0BF
:10790800025007E1180E015CD8B08DEF3CF08FEF04
:107918003CF0BDEF3CF003500410D8B496EF3CF0B7
:1079280098EF3CF0AAEF3CF001C005F0F00E0526F8
:10793800010E066E052AA3EF3CF0D8900636052EF8
:10794800A1EF3CF00650941233EF3DF001C005F072
:10795800F00E0526010E066E052AB5EF3CF0D8900C
:107968000636052EB3EF3CF00650FF0A941633EFA7
:107978003DF002BECBEF3CF0025007E1200E015C67
:10798800D8B0C9EF3CF0CBEF3CF0F9EF3CF0035036
:107998000410D8B4D2EF3CF0D4EF3CF0E6EF3CF062
:1079A80001C005F0E80E0526010E066E052ADFEF78
:1079B8003CF0D8900636052EDDEF3CF006509512C7
:1079C80033EF3DF001C005F0E80E0526010E066E06
:1079D800052AF1EF3CF0D8900636052EEFEF3CF083
:1079E8000650FF0A951633EF3DF002BE07EF3DF053
:1079F800025007E1280E015CD8B005EF3DF007EF13
:107A08003DF033EF3DF003500410D8B40EEF3DF0D5
:107A180010EF3DF022EF3DF001C005F0E00E052625
:107A2800010E066E052A1BEF3DF0D8900636052E8E
:107A380019EF3DF00650961233EF3DF001C005F006
:107A4800E00E0526010E066E052A2DEF3DF0D890B2
:107A58000636052E2BEF3DF00650FF0A961612004B
:107A6800316E41EF3FF06BB03CEF3DF03EEF3DF043
:107A78004EEF3DF03C0E7326000E742275227622DE
:107A880073C04FF074C050F075C051F076C052F01A
:107A980062EF3FF0080E6B186C106D106E10D8A4D2
:107AA80058EF3DF05AEF3DF06AEF3DF03C0E6F267F
:107AB800000E7022712272226FC04FF070C050F019
:107AC80071C051F072C052F062EF3FF03C0E772661
:107AD800000E782279227A2277C04FF078C050F0D1
:107AE80079C051F07AC052F062EF3FF06BB07FEF8F
:107AF8003DF081EF3DF08BEF3DF0C40E7326FF0E95
:107B08007422FF0E7522FF0E762244EF3DF0080E18
:107B18006B186C106D106E10D8A495EF3DF097EFB0
:107B28003DF0A1EF3DF0C40E6F26FF0E7022FF0E50
:107B38007122FF0E722260EF3DF0C40E7726FF0E11
:107B48007822FF0E7922FF0E7A2270EF3DF06BB09B
:107B5800B0EF3DF0B2EF3DF0BDEF3DF0010E60EC4F
:107B680031F0E10E0F6E7E0E106EBAEC32F0EFEFD0
:107B78003EF04350441045104610D8B4C6EF3DF0CF
:107B8800C8EF3DF0EFEF3EF0010E60EC31F0DE0E95
:107B98000F6E7F0E106EBAEC32F0C00E60EC31F052
:107BA80043C01BF044C01CF09EEC33F0F60E0F6E81
:107BB8007F0E106EBAEC32F0000E616EEFEF3EF001
:107BC800180E1F6E000E206E000E216E000E226E23
:107BD800100E116E0E0E126E000E136E000E146E45
:107BE8004FC00DF050C00EF051C00FF052C010F051
:107BF80049EC36F00DC01BF00EC01CF00FC01DF094
:107C080010C01EF0D3EC35F01BC029F01CC02AF0C0
:107C18001DC02BF01EC02CF0000E256E29C00DF0E3
:107C28002AC00EF02BC00FF02CC010F00A0E116EF7
:107C3800000E126E000E136E000E146E49EC36F034
:107C48000D5010EC33F0180E1F6E000E206E000E53
:107C5800216E000E226E100E116E0E0E126E000EA8
:107C6800136E000E146E4FC00DF050C00EF051C0D0
:107C78000FF052C010F049EC36F00DC01BF00EC0EA
:107C88001CF00FC01DF010C01EF0D3EC35F01BC067
:107C98002DF01CC02EF01DC02FF01EC030F0010EBC
:107CA800256E2DC01BF02EC01CF02FC01DF030C05B
:107CB8001EF00A0E1F6E000E206E000E216E000EC2
:107CC800226ED3EC35F01B5010EC33F0020E256E0B
:107CD800580E116E020E126E000E136E000E146E08
:107CE8004FC00DF050C00EF051C00FF052C010F050
:107CF80049EC36F00DC01BF00EC01CF00FC01DF093
:107D080010C01EF0060E1F6E000E206E000E216EB3
:107D1800000E226ED3EC35F01B5010EC33F0030E3E
:107D2800256E3C0E116E000E126E000E136E000EC4
:107D3800146E4FC00DF050C00EF051C00FF052C07D
:107D480010F049EC36F00DC01BF00EC01CF00FC04F
:107D58001DF010C01EF00A0E1F6E000E206E000EE1
:107D6800216E000E226ED3EC35F01B5010EC33F070
:107D78006BA0C1EF3EF0C3EF3EF0CBEF3EF0010E3B
:107D88004B26000E4C224D224E22D1EF3EF0010E22
:107D98004726000E482249224A221FEC38F0000EDE
:107DA800336E000E326E324A332A33BEE5EF3EF0B0
:107DB800F40E325C010E3358D8A0E5EF3EF0E7EF41
:107DC8003EF0D7EF3EF0FF0E4F26FF0E5022FF0E7B
:107DD8005122FF0E522252BEFEEF3EF05250511079
:107DE800501006E14F04D8B0FCEF3EF0FEEF3EF035
:107DF800E4EF3DF0010E6B26000E6C226D226E2220
:107E0800D5EC38F0010E60EC31F0050E0F6E7F0EE8
:107E1800106EBAEC32F0C00E60EC31F04BC00DF0D1
:107E28004CC00EF04DC00FF04EC010F0100E116E89
:107E38000E0E126E000E136E000E146E49EC36F024
:107E48000DC01BF00EC01CF09EEC33F0F60E0F6E4A
:107E58007F0E106EBAEC32F062EF3FF0010E60EC6C
:107E680031F0010E616E62EF3FF0010E6B26000EDD
:107E78006C226D226E2262EF3FF03150276E286A25
:107E88002850000AD8B44BEF3FF062EF3FF027507C
:107E9800440AD8B47AEF3DF0080AD8B432EF3FF07C
:107EA8001F0AD8B4ABEF3DF0060AD8B437EF3DF05F
:107EB800260AD8B439EF3FF062EF3FF01200003FD6
:107EC800065B4F666D7D077F6F777C395E797155EC
:107ED8004C4452535841425973486F726120646F41
:107EE8002064657363616E736F210070726F7869C7
:107EF8006D6F20696E74657276616C6F0054656D84
:107F0800706F2064652065737475646F3A006175DD
:107F18006D656E746172206F2074656D706F00649A
:107F2800696D696E756972206F2074656D706F0078
:107F3800506F6D6F646F726F2054696D65722100A8
:107F48004170657274652027442720706172610052
:107F5800446967697465202747272070617261004A
:107F68004170657274652027532720706172610023
:107F78004170657274652027552720706172610011
:107F880041706572746520277327207061726100E3
:107F9800636F6D65636172206F2074696D6572002F
:107FA8007365746172206D65746120646500657322
:107FB8007475646F20656D206D696E0070756C61F5
:107FC800722070617261206F0042656D2D76696E56
:107FD800646F20616F00417475616C206D65746118
:107FE8003A00496E73747275636F65733A00206D59
:087FF800696E75746F730000DF
:020000040020DA
:08000000FFFFFFFFFFFFFFFF00
:020000040030CA
:0E000000FF071F1FFF8385FF0FC00FE00F409B
:00000001FF
